:100000000C9456000C9468000C9468000C946800E2
:100010000C9468000C9468000C9468000C946800C0
:100020000C9468000C9468000C9468000C946800B0
:100030000C9468000C9468000C9468000C946800A0
:100040000C9468000C9468000C9468000C94680090
:100050000C9468000C9468000C9468000C94680080
:100060000C9468000C9492000C9468000C94680046
:100070000C9468000C9468000C9468000C94680060
:100080000C9468000C9468000C9468000C94680050
:100090000C9468000C9468000C9468000C94680040
:1000A0000C9468000C9468000C94680011241FBE26
:1000B000CFEFDAE0DEBFCDBF21E0A0E0B1E001C0CC
:1000C0001D92AC30B207E1F70E94EA010C944302A2
:1000D0000C940000539A52981092C800E9ECF0E09A
:1000E00080818869808386E08093CA001092CD0069
:1000F00089E18093CC0008959091C80095FFFCCFD2
:100100008093CE000895FC012081222351F0319686
:100110009091C80095FFFCCF2093CE002191211132
:10012000F7CF08951F920F920FB60F9211248F935D
:10013000EF93FF938091CE008D30B9F0E0910101F3
:10014000F0E0EE5FFE4F8083809101018F5F80932E
:100150000101809101018A30A1F0FF91EF918F910F
:100160000F900FBE0F901F901895889A81E0809392
:100170000001FF91EF918F910F900FBE0F901F9094
:10018000189510920101FF91EF918F910F900FBE82
:100190000F901F901895FF920F931F93CF93DF93AB
:1001A000C82FF62E072F142F0E94E10180E28C0F3A
:1001B0000E94E501112361F0CF2DD02FCE01810FD8
:1001C000911D8C0189910E94E501C017D107D1F7DB
:1001D000DF91CF911F910F91FF900C94E301BF929B
:1001E000CF92DF92EF92FF920F931F93CF93DF9303
:1001F0001F92CDB7DEB7182F7B01B42EC22E279ADF
:100200002F98DD24D394D98241E0BE016F5F7F4FE8
:1002100081E00E94CB008FE2898341E0BE016F5FE5
:100220007F4F84E00E94CB00D98241E0BE016F5F26
:100230007F4F82E00E94CB00198341E0BE016F5FD7
:100240007F4F83E00E94CB00B98241E0BE016F5F27
:100250007F4F85E00E94CB0087E0898341E0BE01AB
:100260006F5F7F4F86E00E94CB00412FB7018AE08D
:100270000E94CB00412FB70180E10E94CB00C982D0
:1002800041E0BE016F5F7F4F81E10E94CB00002300
:10029000A1F08FE3898341E0BE016F5F7F4F80E073
:1002A0000E94CB000F90DF91CF911F910F91FF9093
:1002B000EF90DF90CF90BF9008958EE18983EBCFD0
:1002C000FF920F931F93CF93DF93F82E092F162FD2
:1002D0000E94E10181EE0E94E5010E94E3010E947B
:1002E000E10180EA0E94E501112361F0CF2DD02FBA
:1002F000CE01810F911D8C0189910E94E501C017EB
:10030000D107D1F70E94E3018FE39CE90197F1F750
:1003100000C000002F9A9FEF29EF80E0915020400D
:100320008040E1F700C000002F988FE39CE901971F
:10033000F1F700C00000DF91CF911F910F91FF9066
:100340000895FF920F931F93CF93DF93C82FF62E3C
:10035000072F142F0E94E1018C2F0E94E501112329
:1003600071F0CF2DD02FCE01810F911D8C018FEF19
:100370000E94E5018EB58993C017D107C1F7DF91BF
:10038000CF911F910F91FF900C94E301CF93DF93D6
:100390001F92CDB7DEB780E7898341E0BE016F5F72
:1003A0007F4F87E00E94CB000F90DF91CF9108959F
:1003B00084B1876084B923988CB581658CBD289AF7
:1003C000089528980895289A08958EBD0DB407FEC3
:1003D000FDCF0895CF93DF9300D000D01F92CDB70B
:1003E000DEB7539A52981092C8008091C90088696C
:1003F0008093C90086E08093CA001092CD0089E105
:100400008093CC00789481E080BB0E94D8012FEFCC
:1004100083ED90E3215080409040E1F700C0000060
:1004200082E1898383E18A8384E18B8385E18C8304
:1004300086E18D8300E02AE04EE6BE016F5F7F4FCC
:1004400085E00E94EF006AE082E091E00E94600196
:100450000E94C6011BE4809100018823E1F3889A81
:100460006AE082E091E00E9460010E94C6018898E3
:1004700010920101109200018091C80085FFFCCF0D
:0A0480001093CE00E8CFF894FFCFF0
:00000001FF
