:100000000C9456000C9468000C9468000C946800E2
:100010000C9468000C9468000C9468000C943A05E9
:100020000C9468000C9468000C9468000C946800B0
:100030000C9468000C9468000C9468000C946800A0
:100040000C9468000C9468000C9468000C94680090
:100050000C9468000C9468000C9468000C94680080
:100060000C9468000C9468000C9468000C94680070
:100070000C9468000C9468000C9468000C94680060
:100080000C9468000C9468000C9468000C94680050
:100090000C9468000C9468000C9468000C94680040
:1000A0000C9468000C9468000C94680011241FBE26
:1000B000CFEFDAE0DEBFCDBF21E0A0E0B1E001C0CC
:1000C0001D92AC30B207E1F70E94E5060C943808A7
:1000D0000C940000EF92FF920F93CF93DF9300D028
:1000E000CDB7DEB75098519860E27EE480E090E0B2
:1000F0000E94000419821A828AEA0E94210488233D
:1001000049F080E00F900F90DF91CF910F91FF9019
:10011000EF9008950E944B0481E00E944B0480E020
:100120000E944B040E941904CE0101967C0100E05C
:1001300022E040E06BEA8AEA0E94700481E02981B3
:100140003A8121323440E9F60F900F90DF91CF9140
:100150000F91FF90EF900895DF92EF92FF920F932F
:100160001F93CF93DF9300D0CDB7DEB7182FD92ED2
:100170008AEA0E942104882359F081E00F900F90B1
:10018000DF91CF911F910F91FF90EF90DF90089535
:100190000E944B0480E00E944B0480E00E944B04CC
:1001A00080E00E944B0480E00E944B0480E00E94AB
:1001B0004B040E9419048AEA0E9421048111DDCFB8
:1001C0000E944B0483E10E944B0480E00E944B0498
:1001D0000E94190419821A822FEF83ED90E32150B7
:1001E00080409040E1F700C00000CE0101967C0104
:1001F00000E022E046E06BEA8AEA0E94700489810E
:1002000084FFBBCF8AEA0E94210481E60E944B044E
:1002100080E00E944B040E9419048AEA0E94210493
:100220008EE30E944B0482E50E944B040E94190455
:100230008AEA0E9421048FE30E944B0480E00E941E
:100240004B040E94190420E040E66BEA8AEA0E940F
:10025000E004082F8A818C3A09F08FCF20E04AE42D
:100260006BEA8AEA0E94E004898320E04BE46BEAAF
:100270008AEA0E94E0048A838AEA0E9421048AE4CE
:100280000E944B048D2D0E944B040E9419048AEA9F
:100290000E9421048BE40E944B04812F0E944B0496
:1002A0000E9419048FEF90E0801B91092981821B25
:1002B00091092A81821B9109907897FD2BC01D0D11
:1002C000180F10958AEA0E94210480E60E944B04D0
:1002D000812F0E944B040E9419048AEA0E94210483
:1002E00080E00E944B0482E40E944B0480E00E9464
:1002F0004B040E9419048AEA0E94210480E00E94B3
:100300004B0480E20E944B0480E00E944B040E9458
:10031000190433CF01979F6F0196D1CF20E04CE1B4
:100320006BEA8AEA0C94E0045D988FE39CE90197FC
:10033000F1F700C000005D9A08955C9A08955C98FA
:100340000895CF93C82F5C980E94DC068C2F0E94E2
:10035000E006CF910C94DE06CF93C82F5C9A0E94E2
:10036000DC068C2F0E94E006CF910C94DE06CF9322
:10037000DF9380E10E94A1018FE39FE10197F1F7F4
:1003800000C00000C8ECD0E08FEF0E94AC012197C4
:10039000D9F78FE39FE10197F1F700C0000083E1F7
:1003A0000E94A1018FE39FE10197F1F700C00000D7
:1003B000C8ECD0E08FEF0E94AC012197D9F78FE312
:1003C0009FE10197F1F700C00000DF91CF91089500
:1003D00088E280930101559A5D9A549A86E00E94C2
:1003E000A10187E10E94AC0187E10E94AC0187E195
:1003F0000E94AC0184E00E94A1012FEF87EA91E600
:10040000215080409040E1F700C0000080E00E9451
:10041000A1018FE80E94AC018FE80E94AC0180E549
:100420000E94A10187E30E94AC0181E60E94A10124
:1004300088E60E94AC0180E00E94AC0184ED0E943D
:10044000AC012FEF87EA91E6215080409040E1F720
:1004500000C000000895EF92FF920F931F93CF9377
:10046000DF937C018B01892BF1F080E10E94A101D7
:10047000EFE3FFE13197F1F700C000008091010147
:10048000882389F0C0E0D0E0F70181917F010E94CC
:10049000AC01219620910101F5E02F9F90011124DC
:1004A000C217D3078CF38FE39FE10197F1F700C0E8
:1004B00000000115110521F183E10E94A1018FE3E4
:1004C0009FE10197F1F700C00000809101018823AE
:1004D00089F0C0E0D0E0F80181918F010E94AC0169
:1004E000219680910101F5E08F9FC0011124C8176A
:1004F000D9078CF3EFE3FFE13197F1F700C000007B
:10050000DF91CF911F910F91FF90EF90089577FDAC
:1005100029C0E0910101F0E06E177F071CF5483219
:10052000510500F5232BF9F4E49F9001E59F300D70
:10053000F49F300D1124F901E60FF71FF595E795AB
:10054000F595E795F595E795E80FF91F677077271B
:1005500080E890E002C0959587956A95E2F79081D2
:10056000892B80830895E49F9001E59F300DF49FCF
:10057000300D1124F901E60FF71FF595E795F59574
:10058000E795F595E795E80FF91F6770772780E8FD
:1005900090E002C0959587956A95E2F780959081E5
:1005A0008923808308959F92AF92BF92CF92DF926A
:1005B000EF92FF920F931F93CF93DF93EC01F62EF0
:1005C0005A01E22E932E680181E90E94A10180E97F
:1005D0000E94A1011F2D187F812F0E94AC018FEF77
:1005E0008E0D810F87600E94AC018B2D0E94AC01A3
:1005F0008A2D0E94AC01C5018C0D9D1D0197892F8C
:100600000E94AC018FEF8C0D8A0D0E94AC0181E03D
:100610000E94AC018FE39FE10197F1F700C0000059
:1006200080E10E94A1018E2D992D209791F197FDD7
:100630002EC09C013595279535952795359527959D
:100640002C9DC0012D9D900D3C9D900D11241816E0
:1006500019064CF48E01080F191F89910E94AC01F4
:100660000C171D07D1F78FE39FE10197F1F700C049
:10067000000082E9DF91CF911F910F91FF90EF90E1
:10068000DF90CF90BF90AF909F900C94A101079600
:10069000D0CF97FD1AC09595879595958795959597
:1006A00087958C9D80018D9D100D9C9D100D1124B2
:1006B00010161106C4F6C0E0D0E080E00E94AC0144
:1006C0002196C017D107C9F7CECF0796E4CF9F92E6
:1006D000AF92BF92CF92DF92EF92FF920F931F9350
:1006E000CF93DF93EC01F62E5A01E22E932E680190
:1006F00081E90E94A10180E90E94A1011F2D187FBC
:10070000812F0E94AC018FEF8E0D810F87600E94B8
:10071000AC018B2D0E94AC018A2D0E94AC01C50159
:100720008C0D9D1D0197892F0E94AC018FEF8C0DC0
:100730008A0D0E94AC0181E00E94AC018FE39FE131
:100740000197F1F700C0000083E10E94A1018E2D06
:10075000992D209791F197FD2EC09C0135952795F5
:1007600035952795359527952C9DC0012D9D900D8C
:100770003C9D900D1124181619064CF48E01080F9B
:10078000191F89910E94AC010C171D07D1F78FE347
:100790009FE10197F1F700C0000082E9DF91CF915E
:1007A0001F910F91FF90EF90DF90CF90BF90AF908F
:1007B0009F900C94A1010796D0CF97FD1AC09595F4
:1007C000879595958795959587958C9D80018D9DAD
:1007D000100D9C9D100D112410161106C4F6C0E0DA
:1007E000D0E080E00E94AC012196C017D107C9F784
:1007F000CECF0796E4CF8091BC0087FFFCCF089551
:100800009B01AC011092B90060E074E284EF90E0CB
:100810000E940208DA01C9014097A109B109B69501
:10082000A795979587958093B80084E08093BC0046
:10083000089584E98093BC008091BC0084FDFCCFC6
:10084000089594EA9093BC009091BC0097FFFCCF70
:100850009091B900987F983021F0903111F0892F54
:1008600008958093BB0084E88093BC008091BC0015
:1008700087FFFCCF8091B900887F883151F08034A8
:1008800041F094E99093BC009091BC0094FDFCCFA2
:10089000089580E008958093BB0084E88093BC00B5
:1008A0008091BC0087FFFCCF8091B900887F88329F
:1008B00009F0089580E0089584E88093BC00809159
:1008C000BC0087FFFCCF8091BB00089584EC80932F
:1008D000BC008091BC0087FFFCCF8091BB000895D5
:1008E000EF92FF920F931F93CF93DF93162FD42F86
:1008F000C22F0E942104811117C0D093BB0084E84D
:100900008093BC008091BC0087FFFCCF8091B90030
:10091000887F8832B9F08823A9F0DF91CF911F91A9
:100920000F91FF90EF90089584E98093BC0080912F
:10093000BC0084FDFCCFDF91CF911F910F91FF9000
:10094000EF9008950023A1F1812F0E942104CC2370
:10095000D1F04C2F50E041505109F70120E030E038
:1009600094EC64E824173507E1F09093BC00809183
:10097000BC0087FFFCCF8091BB0080832F5F3F4F7F
:1009800031962C1778F384E98093BC008091BC00E9
:1009900084FDFCCFDF91CF911F910F91FF90EF90DD
:1009A00008956093BC008091BC0087FFFCCFE3CF2B
:1009B00084E98093BC008091BC0084FDFCCFC4CF4F
:1009C0001F93CF93DF93D62FC42F122F0E942104A1
:1009D00081111BC0C093BB0084E88093BC00809150
:1009E000BC0087FFFCCF8091B900887F8832C1F0BE
:1009F0008823B1F094E99093BC009091BC0094FDE1
:100A0000FCCFDF91CF911F91089594E99093BC00A2
:100A10009091BC0094FDFCCFDF91CF911F91089580
:100A200084E98093BC008091BC0084FDFCCF8D2FB5
:100A30000E9421048111E5CF1123A1F084EC809361
:100A4000BC008091BC0087FFFCCF8091BB0094E983
:100A50009093BC009091BC0094FDFCCFDF91CF91AE
:100A60001F91089584E88093BC008091BC0087FFAB
:100A7000FCCFEBCF1F920F920FB60F9211242F9342
:100A80003F934F935F936F937F938F939F93AF9316
:100A9000BF93EF93FF9380910001811109C04AE059
:100AA00062E071E081E60E94960681E08093000199
:100AB000FF91EF91BF91AF919F918F917F916F9136
:100AC0005F914F913F912F910F900FBE0F901F900C
:100AD0001895AF92BF92CF92DF92EF92FF920F9351
:100AE0001F93CF93DF937C01209101012223A9F072
:100AF000D12C0D2D10E0C0E0D0E020E030E0AE01C0
:100B0000B801C7010E9487022196C832D105A9F712
:100B1000D39420910101D21660F330E08AE790E08F
:100B2000B9010E94EE07672BB9F1C12CD12C8AE7DD
:100B3000A82EB12CC0E0D0E003C02091010130E02C
:100B40002C9DB0012D9D700D3C9D700D112408E26F
:100B500010E0AE01C7010E9467032091010130E05F
:100B60002C9DB0012D9D700D3C9D700D1124AE018A
:100B7000C7010E94D302A896C03FD105F1F68FEFBE
:100B8000C81AD80A2091010130E0C501B9010E94BC
:100B9000EE07C616D70674F2DF91CF911F910F9121
:100BA000FF90EF90DF90CF90BF90AF900895FF92AD
:100BB0000F931F93CF93DF93C82FF62E072F142F79
:100BC0000E94D8068C2F80620E94E006112361F0FB
:100BD000CF2DD02FCE01810F911D8C0189910E94C4
:100BE000E006C017D107D1F7DF91CF911F910F9188
:100BF000FF900C94DA06BF92CF92DF92EF92FF92B1
:100C00000F931F93CF93DF931F92CDB7DEB7182FAB
:100C10007B01B42EC22E3F9A4798DD24D394D9820B
:100C200041E0BE016F5F7F4F81E00E94D7058FE2F8
:100C3000898341E0BE016F5F7F4F84E00E94D7054A
:100C4000D98241E0BE016F5F7F4F82E00E94D705ED
:100C5000198341E0BE016F5F7F4F83E00E94D7059B
:100C6000B98241E0BE016F5F7F4F85E00E94D705EA
:100C700087E0898341E0BE016F5F7F4F86E00E947D
:100C8000D705412FB7018AE00E94D705412FB70150
:100C900080E10E94D705C98241E0BE016F5F7F4FAE
:100CA00081E10E94D7050023A9F08FE38983479A49
:100CB00041E0BE016F5F7F4F80E00E94D7050F903B
:100CC000DF91CF911F910F91FF90EF90DF90CF9028
:100CD000BF9008958EE78983EBCFFF920F931F9308
:100CE000CF93DF93F82E092F162F0E94D80681EE9E
:100CF0000E94E0060E94DA060E94D80680EA0E945E
:100D0000E006112361F0CF2DD02FCE01810F911D70
:100D10008C0189910E94E006C017D107D1F7DF91BD
:100D2000CF911F910F91FF900C94DA06FF920F93D1
:100D30001F93CF93DF93C82FF62E072F142F0E94F7
:100D4000D8068C2F0E94E006112371F0CF2DD02FF2
:100D5000CE01810F911D8C018FEF0E94E0068EB5B0
:100D60008993C017D107C1F7DF91CF911F910F91E0
:100D7000FF900C94DA06CF93DF931F92CDB7DEB7C6
:100D800080E7898341E0BE016F5F7F4F87E00E946B
:100D9000D7050F90DF91CF91089584B1876084B912
:100DA0003E9A23988CB581658CBD469A289A089501
:100DB00046980895469A089528980895289A08957F
:100DC0008EBD0DB407FEFDCF0895CF93DF9300D005
:100DD00000D01F92CDB7DEB711E010BB0E946A00B1
:100DE0008111F1C06E9880916A00806180936A00E1
:100DF000EE9A789453980E94CD060E94E80189B13A
:100E0000809101018695869586952DB73EB798E22B
:100E1000899F2019310911240FB6F8943EBF0FBEE7
:100E20002DBF2F5F3F4F7901C9010E94690589B12C
:100E300082E10E94A10189B13FEF89E592E622E0BB
:100E40003150804090402040D9F700C0000082E13E
:100E5000898383E18A8384E18B8385E18C8386E1C6
:100E60008D8301E02AE04EE6BE016F5F7F4F85E093
:100E70000E94FB054AE062E071E081E60E9496066E
:100E80000E94BB06809100018823E1F3809102015A
:100E90008434C9F080910201833509F447C0809100
:100EA0000201833409F44EC080910201823509F4B5
:100EB00080C080910201873509F480C00E94BB0682
:100EC00010920001DFCF80910301823409F446C003
:100ED00080910301823591F74091050160910401F1
:100EE0002091010130E050E070E008E210E0C7011D
:100EF0000E94670389B1809101018823F9F2B12C26
:100F0000CB2CD12C00E010E020E030E0A801B601AD
:100F1000C7010E9487020F5F1F4F08321105A1F71A
:100F2000B39480910101B81658F3C8CF40910401E1
:100F30006091030150E070E021E030E0C7010E94C1
:100F40008702BCCF409104016091030150E070E042
:100F500020E030E0C7010E948702B0CF4091050138
:100F6000609104012091010130E050E070E008E25E
:100F700010E0C7010E94D30289B18091010188234A
:100F800009F49CCFB12CCB2CD12C00E010E020E058
:100F900030E0A801B601C7010E9487020F5F1F4F12
:100FA00008321105A1F7B39480910101B81658F3E6
:100FB00085CF82E10E94A10189B180CFC7010E9443
:100FC000690589B17BCF8CEB92E00E94AC000E9456
:100FD0008E01813608F406CF11BB04CF97FB072E94
:100FE00016F4009407D077FD09D00E94240807FC6E
:100FF00005D03EF4909581959F4F08957095619529
:101000007F4F0895A1E21A2EAA1BBB1BFD010DC044
:10101000AA1FBB1FEE1FFF1FA217B307E407F507A8
:1010200020F0A21BB30BE40BF50B661F771F881F84
:10103000991F1A9469F760957095809590959B011A
:10104000AC01BD01CF010895AA1BBB1B51E107C034
:10105000AA1FBB1FA617B70710F0A61BB70B881F48
:10106000991F5A95A9F780959095BC01CD010895D7
:04107000F894FFCF22
:00000001FF
