:100000000C9456000C9468000C9468000C946800E2
:100010000C9468000C9468000C9468000C943C05E7
:100020000C9468000C9468000C9468000C946800B0
:100030000C9468000C9468000C9468000C946800A0
:100040000C9468000C94D9050C9468000C9468001A
:100050000C9468000C9468000C9468000C94680080
:100060000C9468000C9468000C9468000C94680070
:100070000C9468000C9468000C9468000C94680060
:100080000C9468000C9468000C9468000C94680050
:100090000C9468000C9468000C9468000C94680040
:1000A0000C9468000C9468000C94680011241FBE26
:1000B000CFEFDAE0DEBFCDBF21E0A0E0B1E001C0CC
:1000C0001D92AE30B207E1F70E94FE060C94840840
:1000D0000C940000EF92FF920F93CF93DF9300D028
:1000E000CDB7DEB75098519860E27EE480E090E0B2
:1000F0000E94020419821A828AEA0E942304882339
:1001000049F080E00F900F90DF91CF910F91FF9019
:10011000EF9008950E944D0481E00E944D0480E01C
:100120000E944D040E941B04CE0101967C0100E058
:1001300022E040E06BEA8AEA0E94720481E02981B1
:100140003A8121323440E9F60F900F90DF91CF9140
:100150000F91FF90EF900895DF92EF92FF920F932F
:100160001F93CF93DF9300D0CDB7DEB7182FD92ED2
:100170008AEA0E942304882359F081E00F900F90AF
:10018000DF91CF911F910F91FF90EF90DF90089535
:100190000E944D0480E00E944D0480E80E944D04BE
:1001A00080E00E944D0480E00E944D0480E80E949F
:1001B0004D040E941B048AEA0E9423048111DDCFB2
:1001C0000E944D0483E10E944D0480E00E944D0492
:1001D0000E941B0419821A822FEF83ED90E32150B5
:1001E00080409040E1F700C00000CE0101967C0104
:1001F00000E022E046E06BEA8AEA0E94720489810C
:1002000084FFBBCF8AEA0E94230481E60E944D044A
:1002100080E00E944D040E941B048AEA0E9423048D
:100220008EE30E944D0482E50E944D040E941B044F
:100230008AEA0E9423048FE30E944D0480E00E941A
:100240004D040E941B0420E040E66BEA8AEA0E940B
:10025000E204082F8A818C3A09F08FCF20E04AE42B
:100260006BEA8AEA0E94E204898320E04BE46BEAAD
:100270008AEA0E94E2048A838AEA0E9423048AE4CA
:100280000E944D048D2D0E944D040E941B048AEA99
:100290000E9423048BE40E944D04812F0E944D0490
:1002A0000E941B048FEF90E0801B91092981821B23
:1002B00091092A81821B9109907897FD2BC01D0D11
:1002C000180F10958AEA0E94230480E60E944D04CC
:1002D000812F0E944D040E941B048AEA0E9423047D
:1002E00080E00E944D0482E40E944D0480E00E9460
:1002F0004D040E941B048AEA0E94230480E00E94AD
:100300004D0480E20E944D0480E00E944D040E9452
:100310001B0433CF01979F6F0196D1CF20E04CE1B2
:100320006BEA8AEA0C94E2045D988FE39CE90197FA
:10033000F1F700C000005D9A08955C9A08955C98FA
:100340000895CF93C82F5C980E94F5068C2F0E94C9
:10035000F906CF910C94F706CF93C82F5C9A0E94B0
:10036000F5068C2F0E94F906CF910C94F706CF93D7
:10037000DF9380E10E94A1018FE39FE10197F1F7F4
:1003800000C00000C8ECD0E08FEF0E94AC012197C4
:10039000D9F78FE39FE10197F1F700C0000083E1F7
:1003A0000E94A1018FE39FE10197F1F700C00000D7
:1003B000C8ECD0E08FEF0E94AC012197D9F78FE312
:1003C0009FE10197F1F700C00000DF91CF91089500
:1003D00088E280930301559A5D9A549A86E00E94C0
:1003E000A10187E10E94AC0187E10E94AC0187E195
:1003F0000E94AC0184E00E94A1012FEF87EA91E600
:10040000215080409040E1F700C0000080E00E9451
:10041000A1018FE80E94AC018FE80E94AC0180E549
:100420000E94A10187E30E94AC0181E60E94A10124
:1004300088E60E94AC0180E00E94AC0184ED0E943D
:10044000AC012FEF87EA91E6215080409040E1F720
:1004500000C000000895EF92FF920F931F93CF9377
:10046000DF937C018B01892BF1F080E10E94A101D7
:10047000EFE3FFE13197F1F700C000008091030145
:10048000882389F0C0E0D0E0F70181917F010E94CC
:10049000AC01219620910301F5E02F9F90011124DA
:1004A000C217D3078CF38FE39FE10197F1F700C0E8
:1004B00000000115110521F183E10E94A1018FE3E4
:1004C0009FE10197F1F700C00000809103018823AC
:1004D00089F0C0E0D0E0F80181918F010E94AC0169
:1004E000219680910301F5E08F9FC0011124C81768
:1004F000D9078CF3EFE3FFE13197F1F700C000007B
:10050000DF91CF911F910F91FF90EF90089577FDAC
:1005100029C0E0910301F0E06E177F071CF5483217
:10052000510500F5232BF9F4E49F9001E59F300D70
:10053000F49F300D1124F901E60FF71FF595E795AB
:10054000F595E795F595E795E80FF91F677077271B
:1005500080E890E002C0959587956A95E2F79081D2
:10056000892B80830895E49F9001E59F300DF49FCF
:10057000300D1124F901E60FF71FF595E795F59574
:10058000E795F595E795E80FF91F6770772780E8FD
:1005900090E002C0959587956A95E2F780959081E5
:1005A0008923808308959F92AF92BF92CF92DF926A
:1005B000EF92FF920F931F93CF93DF93EC01F62EF0
:1005C0005A01E22E932E680181E90E94A10180E97F
:1005D0000E94A1011F2D187F812F0E94AC018FEF77
:1005E0008E0D810F87600E94AC018B2D0E94AC01A3
:1005F0008A2D0E94AC01C5018C0D9D1D0197892F8C
:100600000E94AC018FEF8C0D8A0D0E94AC0181E03D
:100610000E94AC018FE39FE10197F1F700C0000059
:1006200080E10E94A1018E2D992D209791F197FDD7
:100630002EC09C013595279535952795359527959D
:100640002C9DC0012D9D900D3C9D900D11241816E0
:1006500019064CF48E01080F191F89910E94AC01F4
:100660000C171D07D1F78FE39FE10197F1F700C049
:10067000000082E9DF91CF911F910F91FF90EF90E1
:10068000DF90CF90BF90AF909F900C94A101079600
:10069000D0CF97FD1AC09595879595958795959597
:1006A00087958C9D80018D9D100D9C9D100D1124B2
:1006B00010161106C4F6C0E0D0E080E00E94AC0144
:1006C0002196C017D107C9F7CECF0796E4CF9F92E6
:1006D000AF92BF92CF92DF92EF92FF920F931F9350
:1006E000CF93DF93EC01F62E5A01E22E932E680190
:1006F00081E90E94A10180E90E94A1011F2D187FBC
:10070000812F0E94AC018FEF8E0D810F87600E94B8
:10071000AC018B2D0E94AC018A2D0E94AC01C50159
:100720008C0D9D1D0197892F0E94AC018FEF8C0DC0
:100730008A0D0E94AC0181E00E94AC018FE39FE131
:100740000197F1F700C0000083E10E94A1018E2D06
:10075000992D209791F197FD2EC09C0135952795F5
:1007600035952795359527952C9DC0012D9D900D8C
:100770003C9D900D1124181619064CF48E01080F9B
:10078000191F89910E94AC010C171D07D1F78FE347
:100790009FE10197F1F700C0000082E9DF91CF915E
:1007A0001F910F91FF90EF90DF90CF90BF90AF908F
:1007B0009F900C94A1010796D0CF97FD1AC09595F4
:1007C000879595958795959587958C9D80018D9DAD
:1007D000100D9C9D100D112410161106C4F6C0E0DA
:1007E000D0E080E00E94AC012196C017D107C9F784
:1007F000CECF0796E4CF89B108958091BC0087FFE2
:10080000FCCF08959B01AC011092B90060E074E246
:1008100084EF90E00E944E08DA01C9014097A109D7
:10082000B109B695A795979587958093B80084E010
:100830008093BC00089584E98093BC008091BC0043
:1008400084FDFCCF089594EA9093BC009091BC0085
:1008500097FFFCCF9091B900987F983021F09031AC
:1008600011F0892F08958093BB0084E88093BC0029
:100870008091BC0087FFFCCF8091B900887F8831D0
:1008800051F0803441F094E99093BC009091BC0009
:1008900094FDFCCF089580E008958093BB0084E828
:1008A0008093BC008091BC0087FFFCCF8091B90091
:1008B000887F883209F0089580E0089584E8809365
:1008C000BC008091BC0087FFFCCF8091BB000895E5
:1008D00084EC8093BC008091BC0087FFFCCF8091AA
:1008E000BB000895EF92FF920F931F93CF93DF9376
:1008F000162FD42FC22F0E942304811117C0D0932A
:10090000BB0084E88093BC008091BC0087FFFCCFD3
:100910008091B900887F8832B9F08823A9F0DF91EF
:10092000CF911F910F91FF90EF90089584E98093EC
:10093000BC008091BC0084FDFCCFDF91CF911F9162
:100940000F91FF90EF9008950023A1F1812F0E9455
:100950002304CC23D1F04C2F50E041505109F70132
:1009600020E030E094EC64E824173507E1F0909340
:10097000BC008091BC0087FFFCCF8091BB008083CE
:100980002F5F3F4F31962C1778F384E98093BC009A
:100990008091BC0084FDFCCFDF91CF911F910F911E
:1009A000FF90EF9008956093BC008091BC0087FF9A
:1009B000FCCFE3CF84E98093BC008091BC0084FD30
:1009C000FCCFC4CF1F93CF93DF93D62FC42F122F0A
:1009D0000E94230481111BC0C093BB0084E8809354
:1009E000BC008091BC0087FFFCCF8091B900887F5C
:1009F0008832C1F08823B1F094E99093BC009091C3
:100A0000BC0094FDFCCFDF91CF911F91089594E934
:100A10009093BC009091BC0094FDFCCFDF91CF91EE
:100A20001F91089584E98093BC008091BC0084FDEF
:100A3000FCCF8D2F0E9423048111E5CF1123A1F05B
:100A400084EC8093BC008091BC0087FFFCCF809138
:100A5000BB0094E99093BC009091BC0094FDFCCF46
:100A6000DF91CF911F91089584E88093BC0080911D
:100A7000BC0087FFFCCFEBCF1F920F920FB60F92F7
:100A800011242F933F934F935F936F937F938F9393
:100A90009F93AF93BF93EF93FF93809102018111D6
:100AA00009C04AE064E071E081E60E94AF0681E09F
:100AB00080930201FF91EF91BF91AF919F918F9130
:100AC0007F916F915F914F913F912F910F900FBE4A
:100AD0000F901F901895AF92BF92CF92DF92EF9236
:100AE000FF920F931F93CF93DF937C01209103011B
:100AF0002223A9F0D12C0D2D10E0C0E0D0E020E0A1
:100B000030E0AE01B801C7010E9487022196C832C9
:100B1000D105A9F7D39420910301D21660F330E0F8
:100B20008AE790E0B9010E943A08672BB9F1C12C1D
:100B3000D12C8AE7A82EB12CC0E0D0E003C02091D0
:100B4000030130E02C9DB0012D9D700D3C9D700D7A
:100B5000112408E210E0AE01C7010E946703209152
:100B6000030130E02C9DB0012D9D700D3C9D700D5A
:100B70001124AE01C7010E94D302A896C03FD1053F
:100B8000F1F68FEFC81AD80A2091030130E0C501B1
:100B9000B9010E943A08C616D70674F2DF91CF91C8
:100BA0001F910F91FF90EF90DF90CF90BF90AF908B
:100BB00008951F920F920FB60F9211248F939F9357
:100BC0008091000190910101019690930101809321
:100BD00000019F918F910F900FBE0F901F9018955D
:100BE000FF920F931F93CF93DF93C82FF62E072FFB
:100BF000142F0E94F1068C2F80620E94F9061123A7
:100C000061F0CF2DD02FCE01810F911D8C018991E4
:100C10000E94F906C017D107D1F7DF91CF911F913C
:100C20000F91FF900C94F306BF92CF92DF92EF9258
:100C3000FF920F931F93CF93DF931F92CDB7DEB731
:100C4000182F7B01B42EC22E3F9A4798DD24D394EF
:100C5000D98241E0BE016F5F7F4F81E00E94F005C5
:100C60008FE2898341E0BE016F5F7F4F84E00E9485
:100C7000F005D98241E0BE016F5F7F4F82E00E94A4
:100C8000F005198341E0BE016F5F7F4F83E00E9452
:100C9000F005B98241E0BE016F5F7F4F85E00E94A1
:100CA000F00587E0898341E0BE016F5F7F4F86E0FA
:100CB0000E94F005412FB7018AE00E94F005412F04
:100CC000B70180E10E94F005C98241E0BE016F5F7B
:100CD0007F4F81E10E94F0050023A9F08FE3898313
:100CE000479A41E0BE016F5F7F4F80E00E94F005B0
:100CF0000F90DF91CF911F910F91FF90EF90DF90B8
:100D0000CF90BF9008958EE78983EBCFFF920F932A
:100D10001F93CF93DF93F82E092F162F0E94F10611
:100D200081EE0E94F9060E94F3060E94F10680EA15
:100D30000E94F906112361F0CF2DD02FCE01810F33
:100D4000911D8C0189910E94F906C017D107D1F736
:100D5000DF91CF911F910F91FF900C94F306FF92BA
:100D60000F931F93CF93DF93C82FF62E072F142FC7
:100D70000E94F1068C2F0E94F906112371F0CF2DED
:100D8000D02FCE01810F911D8C018FEF0E94F906AB
:100D90008EB58993C017D107C1F7DF91CF911F910D
:100DA0000F91FF900C94F306CF93DF931F92CDB772
:100DB000DEB780E7898341E0BE016F5F7F4F87E048
:100DC0000E94F0050F90DF91CF91089584B1876064
:100DD00084B93E9A23988CB581658CBD469A289A31
:100DE000089546980895469A089528980895289A4F
:100DF00008958EBD0DB407FEFDCF0895BF92CF922A
:100E0000DF92EF92FF920F931F93CF93DF9300D067
:100E100000D01F92CDB7DEB70DB71EB781E080BB03
:100E20000E946A00811116C080E090E00FB6F8942D
:100E30001EBF0FBE0DBF0F900F900F900F900F9021
:100E4000DF91CF911F910F91FF90EF90DF90CF90A6
:100E5000BF9008958CEB92E00E94AC000E948E013E
:100E60008A3110F380916F00826080936F008091CF
:100E700081008D60809381008AE196E090938900E3
:100E8000809388006E9880916A00806180936A00E8
:100E9000EE9A789453980E94E6060E94E8010E9418
:100EA000FB03809103018695869586952DB73EB705
:100EB00098E2899F2019310911240FB6F8943EBF9A
:100EC0000FBE2DBF2F5F3F4F7901C9010E946B05F7
:100ED0000E94FB0382E10E94A1010E94FB033FEFFD
:100EE00089E592E622E03150804090402040D9F7D9
:100EF00000C0000082E1898383E18A8384E18B83DF
:100F000085E18C8386E18D8301E02AE04EE6BE0117
:100F10006F5F7F4F85E00E9414064AE064E071E055
:100F200081E60E94AF060E94D406809102018823C8
:100F3000E1F3809104018434C9F080910401833588
:100F400009F448C080910401833409F44FC08091B2
:100F50000401823509F482C080910401873509F4C7
:100F600083C00E94D40610920201DFCF8091050158
:100F7000823409F447C080910501823591F7409190
:100F80000701609106012091030130E050E070E01C
:100F900008E210E0C7010E9467030E94FB038091F2
:100FA00003018823F1F2B12CCB2CD12C00E010E00E
:100FB00020E030E0A801B601C7010E9487020F5F60
:100FC0001F4F08321105A1F7B39480910301B816A1
:100FD00058F3C7CF409106016091050150E070E0E1
:100FE00021E030E0C7010E948702BBCF409106019B
:100FF0006091050150E070E020E030E0C7010E9400
:101000008702AFCF40910701609106012091030153
:1010100030E050E070E008E210E0C7010E94D30227
:101020000E94FB0380910301882309F49ACFB12C1D
:10103000CB2CD12C00E010E020E030E0A801B6017C
:10104000C7010E9487020F5F1F4F08321105A1F7E9
:10105000B39480910301B81658F383CF82E10E94C4
:10106000A1010E94FB037DCFC7010E946B050E9476
:10107000FB0377CF97FB072E16F4009407D077FD7C
:1010800009D00E94700807FC05D03EF49095819528
:101090009F4F0895709561957F4F0895A1E21A2E94
:1010A000AA1BBB1BFD010DC0AA1FBB1FEE1FFF1F0C
:1010B000A217B307E407F50720F0A21BB30BE40B5C
:1010C000F50B661F771F881F991F1A9469F76095A3
:1010D0007095809590959B01AC01BD01CF0108955D
:1010E000AA1BBB1B51E107C0AA1FBB1FA617B7074E
:1010F00010F0A61BB70B881F991F5A95A9F780956A
:0C1100009095BC01CD010895F894FFCF3C
:00000001FF
